{
  "_format": "hh-sol-artifact-1",
  "contractName": "NFTMarket",
  "sourceName": "contracts/NFTMarket.sol",
  "abi": [
    {
      "inputs": [],
      "stateMutability": "nonpayable",
      "type": "constructor"
    },
    {
      "anonymous": false,
      "inputs": [
        {
          "indexed": true,
          "internalType": "address",
          "name": "owner",
          "type": "address"
        },
        {
          "indexed": true,
          "internalType": "address",
          "name": "approved",
          "type": "address"
        },
        {
          "indexed": true,
          "internalType": "uint256",
          "name": "tokenId",
          "type": "uint256"
        }
      ],
      "name": "Approval",
      "type": "event"
    },
    {
      "anonymous": false,
      "inputs": [
        {
          "indexed": true,
          "internalType": "address",
          "name": "owner",
          "type": "address"
        },
        {
          "indexed": true,
          "internalType": "address",
          "name": "operator",
          "type": "address"
        },
        {
          "indexed": false,
          "internalType": "bool",
          "name": "approved",
          "type": "bool"
        }
      ],
      "name": "ApprovalForAll",
      "type": "event"
    },
    {
      "anonymous": false,
      "inputs": [
        {
          "indexed": false,
          "internalType": "uint256",
          "name": "tokenID",
          "type": "uint256"
        },
        {
          "indexed": false,
          "internalType": "address",
          "name": "from",
          "type": "address"
        },
        {
          "indexed": false,
          "internalType": "address",
          "name": "to",
          "type": "address"
        },
        {
          "indexed": false,
          "internalType": "string",
          "name": "tokenURI",
          "type": "string"
        },
        {
          "indexed": false,
          "internalType": "uint256",
          "name": "price",
          "type": "uint256"
        }
      ],
      "name": "NFTTransfer",
      "type": "event"
    },
    {
      "anonymous": false,
      "inputs": [
        {
          "indexed": true,
          "internalType": "address",
          "name": "previousOwner",
          "type": "address"
        },
        {
          "indexed": true,
          "internalType": "address",
          "name": "newOwner",
          "type": "address"
        }
      ],
      "name": "OwnershipTransferred",
      "type": "event"
    },
    {
      "anonymous": false,
      "inputs": [
        {
          "indexed": true,
          "internalType": "address",
          "name": "from",
          "type": "address"
        },
        {
          "indexed": true,
          "internalType": "address",
          "name": "to",
          "type": "address"
        },
        {
          "indexed": true,
          "internalType": "uint256",
          "name": "tokenId",
          "type": "uint256"
        }
      ],
      "name": "Transfer",
      "type": "event"
    },
    {
      "inputs": [
        {
          "internalType": "address",
          "name": "to",
          "type": "address"
        },
        {
          "internalType": "uint256",
          "name": "tokenId",
          "type": "uint256"
        }
      ],
      "name": "approve",
      "outputs": [],
      "stateMutability": "nonpayable",
      "type": "function"
    },
    {
      "inputs": [
        {
          "internalType": "address",
          "name": "owner",
          "type": "address"
        }
      ],
      "name": "balanceOf",
      "outputs": [
        {
          "internalType": "uint256",
          "name": "",
          "type": "uint256"
        }
      ],
      "stateMutability": "view",
      "type": "function"
    },
    {
      "inputs": [
        {
          "internalType": "uint256",
          "name": "tokenID",
          "type": "uint256"
        }
      ],
      "name": "buyNFT",
      "outputs": [],
      "stateMutability": "payable",
      "type": "function"
    },
    {
      "inputs": [
        {
          "internalType": "uint256",
          "name": "tokenID",
          "type": "uint256"
        }
      ],
      "name": "cancelListing",
      "outputs": [],
      "stateMutability": "nonpayable",
      "type": "function"
    },
    {
      "inputs": [
        {
          "internalType": "string",
          "name": "tokenURI",
          "type": "string"
        }
      ],
      "name": "createNFT",
      "outputs": [],
      "stateMutability": "nonpayable",
      "type": "function"
    },
    {
      "inputs": [
        {
          "internalType": "uint256",
          "name": "tokenId",
          "type": "uint256"
        }
      ],
      "name": "getApproved",
      "outputs": [
        {
          "internalType": "address",
          "name": "",
          "type": "address"
        }
      ],
      "stateMutability": "view",
      "type": "function"
    },
    {
      "inputs": [
        {
          "internalType": "address",
          "name": "owner",
          "type": "address"
        },
        {
          "internalType": "address",
          "name": "operator",
          "type": "address"
        }
      ],
      "name": "isApprovedForAll",
      "outputs": [
        {
          "internalType": "bool",
          "name": "",
          "type": "bool"
        }
      ],
      "stateMutability": "view",
      "type": "function"
    },
    {
      "inputs": [
        {
          "internalType": "uint256",
          "name": "tokenID",
          "type": "uint256"
        },
        {
          "internalType": "uint256",
          "name": "price",
          "type": "uint256"
        }
      ],
      "name": "listNFT",
      "outputs": [],
      "stateMutability": "nonpayable",
      "type": "function"
    },
    {
      "inputs": [],
      "name": "name",
      "outputs": [
        {
          "internalType": "string",
          "name": "",
          "type": "string"
        }
      ],
      "stateMutability": "view",
      "type": "function"
    },
    {
      "inputs": [],
      "name": "owner",
      "outputs": [
        {
          "internalType": "address",
          "name": "",
          "type": "address"
        }
      ],
      "stateMutability": "view",
      "type": "function"
    },
    {
      "inputs": [
        {
          "internalType": "uint256",
          "name": "tokenId",
          "type": "uint256"
        }
      ],
      "name": "ownerOf",
      "outputs": [
        {
          "internalType": "address",
          "name": "",
          "type": "address"
        }
      ],
      "stateMutability": "view",
      "type": "function"
    },
    {
      "inputs": [],
      "name": "renounceOwnership",
      "outputs": [],
      "stateMutability": "nonpayable",
      "type": "function"
    },
    {
      "inputs": [
        {
          "internalType": "address",
          "name": "from",
          "type": "address"
        },
        {
          "internalType": "address",
          "name": "to",
          "type": "address"
        },
        {
          "internalType": "uint256",
          "name": "tokenId",
          "type": "uint256"
        }
      ],
      "name": "safeTransferFrom",
      "outputs": [],
      "stateMutability": "nonpayable",
      "type": "function"
    },
    {
      "inputs": [
        {
          "internalType": "address",
          "name": "from",
          "type": "address"
        },
        {
          "internalType": "address",
          "name": "to",
          "type": "address"
        },
        {
          "internalType": "uint256",
          "name": "tokenId",
          "type": "uint256"
        },
        {
          "internalType": "bytes",
          "name": "_data",
          "type": "bytes"
        }
      ],
      "name": "safeTransferFrom",
      "outputs": [],
      "stateMutability": "nonpayable",
      "type": "function"
    },
    {
      "inputs": [
        {
          "internalType": "address",
          "name": "operator",
          "type": "address"
        },
        {
          "internalType": "bool",
          "name": "approved",
          "type": "bool"
        }
      ],
      "name": "setApprovalForAll",
      "outputs": [],
      "stateMutability": "nonpayable",
      "type": "function"
    },
    {
      "inputs": [
        {
          "internalType": "bytes4",
          "name": "interfaceId",
          "type": "bytes4"
        }
      ],
      "name": "supportsInterface",
      "outputs": [
        {
          "internalType": "bool",
          "name": "",
          "type": "bool"
        }
      ],
      "stateMutability": "view",
      "type": "function"
    },
    {
      "inputs": [],
      "name": "symbol",
      "outputs": [
        {
          "internalType": "string",
          "name": "",
          "type": "string"
        }
      ],
      "stateMutability": "view",
      "type": "function"
    },
    {
      "inputs": [
        {
          "internalType": "uint256",
          "name": "tokenId",
          "type": "uint256"
        }
      ],
      "name": "tokenURI",
      "outputs": [
        {
          "internalType": "string",
          "name": "",
          "type": "string"
        }
      ],
      "stateMutability": "view",
      "type": "function"
    },
    {
      "inputs": [
        {
          "internalType": "address",
          "name": "from",
          "type": "address"
        },
        {
          "internalType": "address",
          "name": "to",
          "type": "address"
        },
        {
          "internalType": "uint256",
          "name": "tokenId",
          "type": "uint256"
        }
      ],
      "name": "transferFrom",
      "outputs": [],
      "stateMutability": "nonpayable",
      "type": "function"
    },
    {
      "inputs": [
        {
          "internalType": "address",
          "name": "newOwner",
          "type": "address"
        }
      ],
      "name": "transferOwnership",
      "outputs": [],
      "stateMutability": "nonpayable",
      "type": "function"
    },
    {
      "inputs": [],
      "name": "withdrawFunds",
      "outputs": [],
      "stateMutability": "nonpayable",
      "type": "function"
    },
    {
      "stateMutability": "payable",
      "type": "receive"
    }
  ],
  "bytecode": "0x60806040523480156200001157600080fd5b506040518060400160405280600881526020017f42617369634e46540000000000000000000000000000000000000000000000008152506040518060400160405280600481526020017f424e465400000000000000000000000000000000000000000000000000000000815250816000908051906020019062000096929190620001a6565b508060019080519060200190620000af929190620001a6565b505050620000d2620000c6620000d860201b60201c565b620000e060201b60201c565b620002bb565b600033905090565b6000600760009054906101000a900473ffffffffffffffffffffffffffffffffffffffff16905081600760006101000a81548173ffffffffffffffffffffffffffffffffffffffff021916908373ffffffffffffffffffffffffffffffffffffffff1602179055508173ffffffffffffffffffffffffffffffffffffffff168173ffffffffffffffffffffffffffffffffffffffff167f8be0079c531659141344cd1fd0a4f28419497f9722a3daafe3b4186f6b6457e060405160405180910390a35050565b828054620001b49062000285565b90600052602060002090601f016020900481019282620001d8576000855562000224565b82601f10620001f357805160ff191683800117855562000224565b8280016001018555821562000224579182015b828111156200022357825182559160200191906001019062000206565b5b50905062000233919062000237565b5090565b5b808211156200025257600081600090555060010162000238565b5090565b7f4e487b7100000000000000000000000000000000000000000000000000000000600052602260045260246000fd5b600060028204905060018216806200029e57607f821691505b60208210811415620002b557620002b462000256565b5b50919050565b613dc080620002cb6000396000f3fe60806040526004361061012e5760003560e01c806370a08231116100ab578063a22cb4651161006f578063a22cb465146103c6578063b88d4fde146103ef578063c87b56dd14610418578063da2ed03e14610455578063e985e9c51461047e578063f2fde38b146104bb57610135565b806370a08231146102f3578063715018a6146103305780638da5cb5b1461034757806394383f141461037257806395d89b411461039b57610135565b806324600fc3116100f257806324600fc314610231578063305a67a81461024857806342842e0e1461027157806351ed82881461029a5780636352211e146102b657610135565b806301ffc9a71461013a57806306fdde0314610177578063081812fc146101a2578063095ea7b3146101df57806323b872dd1461020857610135565b3661013557005b600080fd5b34801561014657600080fd5b50610161600480360381019061015c9190612597565b6104e4565b60405161016e91906125df565b60405180910390f35b34801561018357600080fd5b5061018c6105c6565b6040516101999190612693565b60405180910390f35b3480156101ae57600080fd5b506101c960048036038101906101c491906126eb565b610658565b6040516101d69190612759565b60405180910390f35b3480156101eb57600080fd5b50610206600480360381019061020191906127a0565b6106dd565b005b34801561021457600080fd5b5061022f600480360381019061022a91906127e0565b6107f5565b005b34801561023d57600080fd5b50610246610855565b005b34801561025457600080fd5b5061026f600480360381019061026a91906126eb565b610963565b005b34801561027d57600080fd5b50610298600480360381019061029391906127e0565b610b58565b005b6102b460048036038101906102af91906126eb565b610b78565b005b3480156102c257600080fd5b506102dd60048036038101906102d891906126eb565b610e19565b6040516102ea9190612759565b60405180910390f35b3480156102ff57600080fd5b5061031a60048036038101906103159190612833565b610ecb565b604051610327919061286f565b60405180910390f35b34801561033c57600080fd5b50610345610f83565b005b34801561035357600080fd5b5061035c61100b565b6040516103699190612759565b60405180910390f35b34801561037e57600080fd5b506103996004803603810190610394919061288a565b611035565b005b3480156103a757600080fd5b506103b0611156565b6040516103bd9190612693565b60405180910390f35b3480156103d257600080fd5b506103ed60048036038101906103e891906128f6565b6111e8565b005b3480156103fb57600080fd5b5061041660048036038101906104119190612a6b565b6111fe565b005b34801561042457600080fd5b5061043f600480360381019061043a91906126eb565b611260565b60405161044c9190612693565b60405180910390f35b34801561046157600080fd5b5061047c60048036038101906104779190612b4e565b6113b2565b005b34801561048a57600080fd5b506104a560048036038101906104a09190612b9b565b61146b565b6040516104b291906125df565b60405180910390f35b3480156104c757600080fd5b506104e260048036038101906104dd9190612833565b6114ff565b005b60007f80ac58cd000000000000000000000000000000000000000000000000000000007bffffffffffffffffffffffffffffffffffffffffffffffffffffffff1916827bffffffffffffffffffffffffffffffffffffffffffffffffffffffff191614806105af57507f5b5e139f000000000000000000000000000000000000000000000000000000007bffffffffffffffffffffffffffffffffffffffffffffffffffffffff1916827bffffffffffffffffffffffffffffffffffffffffffffffffffffffff1916145b806105bf57506105be826115f7565b5b9050919050565b6060600080546105d590612c0a565b80601f016020809104026020016040519081016040528092919081815260200182805461060190612c0a565b801561064e5780601f106106235761010080835404028352916020019161064e565b820191906000526020600020905b81548152906001019060200180831161063157829003601f168201915b5050505050905090565b600061066382611661565b6106a2576040517f08c379a000000000000000000000000000000000000000000000000000000000815260040161069990612cae565b60405180910390fd5b6004600083815260200190815260200160002060009054906101000a900473ffffffffffffffffffffffffffffffffffffffff169050919050565b60006106e882610e19565b90508073ffffffffffffffffffffffffffffffffffffffff168373ffffffffffffffffffffffffffffffffffffffff161415610759576040517f08c379a000000000000000000000000000000000000000000000000000000000815260040161075090612d40565b60405180910390fd5b8073ffffffffffffffffffffffffffffffffffffffff166107786116cd565b73ffffffffffffffffffffffffffffffffffffffff1614806107a757506107a6816107a16116cd565b61146b565b5b6107e6576040517f08c379a00000000000000000000000000000000000000000000000000000000081526004016107dd90612dd2565b60405180910390fd5b6107f083836116d5565b505050565b6108066108006116cd565b8261178e565b610845576040517f08c379a000000000000000000000000000000000000000000000000000000000815260040161083c90612e64565b60405180910390fd5b61085083838361186c565b505050565b61085d6116cd565b73ffffffffffffffffffffffffffffffffffffffff1661087b61100b565b73ffffffffffffffffffffffffffffffffffffffff16146108d1576040517f08c379a00000000000000000000000000000000000000000000000000000000081526004016108c890612ed0565b60405180910390fd5b600047905060008111610919576040517f08c379a000000000000000000000000000000000000000000000000000000000815260040161091090612f3c565b60405180910390fd5b3373ffffffffffffffffffffffffffffffffffffffff166108fc829081150290604051600060405180830381858888f1935050505015801561095f573d6000803e3d6000fd5b5050565b600060096000838152602001908152602001600020604051806040016040529081600082015481526020016001820160009054906101000a900473ffffffffffffffffffffffffffffffffffffffff1673ffffffffffffffffffffffffffffffffffffffff1673ffffffffffffffffffffffffffffffffffffffff168152505090506000816000015111610a2c576040517f08c379a0000000000000000000000000000000000000000000000000000000008152600401610a2390612fce565b60405180910390fd5b3373ffffffffffffffffffffffffffffffffffffffff16816020015173ffffffffffffffffffffffffffffffffffffffff1614610a9e576040517f08c379a0000000000000000000000000000000000000000000000000000000008152600401610a959061303a565b60405180910390fd5b3073ffffffffffffffffffffffffffffffffffffffff166323b872dd3033856040518463ffffffff1660e01b8152600401610adb9392919061305a565b600060405180830381600087803b158015610af557600080fd5b505af1158015610b09573d6000803e3d6000fd5b50505050610b1682611ac8565b7f705332a8918666802fc1504f63ff1f002a5f6cedd30d59ad7ae0b5281aeb8dca8230336000604051610b4c94939291906130fc565b60405180910390a15050565b610b73838383604051806020016040528060008152506111fe565b505050565b600060096000838152602001908152602001600020604051806040016040529081600082015481526020016001820160009054906101000a900473ffffffffffffffffffffffffffffffffffffffff1673ffffffffffffffffffffffffffffffffffffffff1673ffffffffffffffffffffffffffffffffffffffff168152505090506000816000015111610c41576040517f08c379a0000000000000000000000000000000000000000000000000000000008152600401610c3890612fce565b60405180910390fd5b80600001513414610c87576040517f08c379a0000000000000000000000000000000000000000000000000000000008152600401610c7e906131a0565b60405180910390fd5b3073ffffffffffffffffffffffffffffffffffffffff166323b872dd3033856040518463ffffffff1660e01b8152600401610cc49392919061305a565b600060405180830381600087803b158015610cde57600080fd5b505af1158015610cf2573d6000803e3d6000fd5b505050506000610d236064610d1560058560000151611b3d90919063ffffffff16565b611b5390919063ffffffff16565b90503073ffffffffffffffffffffffffffffffffffffffff166108fc829081150290604051600060405180830381858888f19350505050158015610d6b573d6000803e3d6000fd5b50816020015173ffffffffffffffffffffffffffffffffffffffff166108fc610da1838560000151611b6990919063ffffffff16565b9081150290604051600060405180830381858888f19350505050158015610dcc573d6000803e3d6000fd5b50610dd683611ac8565b7f705332a8918666802fc1504f63ff1f002a5f6cedd30d59ad7ae0b5281aeb8dca8330336000604051610e0c94939291906130fc565b60405180910390a1505050565b6000806002600084815260200190815260200160002060009054906101000a900473ffffffffffffffffffffffffffffffffffffffff169050600073ffffffffffffffffffffffffffffffffffffffff168173ffffffffffffffffffffffffffffffffffffffff161415610ec2576040517f08c379a0000000000000000000000000000000000000000000000000000000008152600401610eb990613232565b60405180910390fd5b80915050919050565b60008073ffffffffffffffffffffffffffffffffffffffff168273ffffffffffffffffffffffffffffffffffffffff161415610f3c576040517f08c379a0000000000000000000000000000000000000000000000000000000008152600401610f33906132c4565b60405180910390fd5b600360008373ffffffffffffffffffffffffffffffffffffffff1673ffffffffffffffffffffffffffffffffffffffff168152602001908152602001600020549050919050565b610f8b6116cd565b73ffffffffffffffffffffffffffffffffffffffff16610fa961100b565b73ffffffffffffffffffffffffffffffffffffffff1614610fff576040517f08c379a0000000000000000000000000000000000000000000000000000000008152600401610ff690612ed0565b60405180910390fd5b6110096000611b7f565b565b6000600760009054906101000a900473ffffffffffffffffffffffffffffffffffffffff16905090565b60008111611078576040517f08c379a000000000000000000000000000000000000000000000000000000000815260040161106f90613356565b60405180910390fd5b6110833330846107f5565b60405180604001604052808281526020013373ffffffffffffffffffffffffffffffffffffffff16815250600960008481526020019081526020016000206000820151816000015560208201518160010160006101000a81548173ffffffffffffffffffffffffffffffffffffffff021916908373ffffffffffffffffffffffffffffffffffffffff1602179055509050507f705332a8918666802fc1504f63ff1f002a5f6cedd30d59ad7ae0b5281aeb8dca8233308460405161114a9493929190613376565b60405180910390a15050565b60606001805461116590612c0a565b80601f016020809104026020016040519081016040528092919081815260200182805461119190612c0a565b80156111de5780601f106111b3576101008083540402835291602001916111de565b820191906000526020600020905b8154815290600101906020018083116111c157829003601f168201915b5050505050905090565b6111fa6111f36116cd565b8383611c45565b5050565b61120f6112096116cd565b8361178e565b61124e576040517f08c379a000000000000000000000000000000000000000000000000000000000815260040161124590612e64565b60405180910390fd5b61125a84848484611db2565b50505050565b606061126b82611661565b6112aa576040517f08c379a00000000000000000000000000000000000000000000000000000000081526004016112a190613440565b60405180910390fd5b60006006600084815260200190815260200160002080546112ca90612c0a565b80601f01602080910402602001604051908101604052809291908181526020018280546112f690612c0a565b80156113435780601f1061131857610100808354040283529160200191611343565b820191906000526020600020905b81548152906001019060200180831161132657829003601f168201915b505050505090506000611354611e0e565b905060008151141561136a5781925050506113ad565b60008251111561139f57808260405160200161138792919061349c565b604051602081830303815290604052925050506113ad565b6113a884611e25565b925050505b919050565b60006008600081546113c3906134ef565b91905081905590506113d53382611ecc565b6114238184848080601f016020809104026020016040519081016040528093929190818152602001838380828437600081840152601f19601f82011690508083019250505050505050611eea565b7f705332a8918666802fc1504f63ff1f002a5f6cedd30d59ad7ae0b5281aeb8dca816000338686600060405161145e96959493929190613565565b60405180910390a1505050565b6000600560008473ffffffffffffffffffffffffffffffffffffffff1673ffffffffffffffffffffffffffffffffffffffff16815260200190815260200160002060008373ffffffffffffffffffffffffffffffffffffffff1673ffffffffffffffffffffffffffffffffffffffff16815260200190815260200160002060009054906101000a900460ff16905092915050565b6115076116cd565b73ffffffffffffffffffffffffffffffffffffffff1661152561100b565b73ffffffffffffffffffffffffffffffffffffffff161461157b576040517f08c379a000000000000000000000000000000000000000000000000000000000815260040161157290612ed0565b60405180910390fd5b600073ffffffffffffffffffffffffffffffffffffffff168173ffffffffffffffffffffffffffffffffffffffff1614156115eb576040517f08c379a00000000000000000000000000000000000000000000000000000000081526004016115e290613633565b60405180910390fd5b6115f481611b7f565b50565b60007f01ffc9a7000000000000000000000000000000000000000000000000000000007bffffffffffffffffffffffffffffffffffffffffffffffffffffffff1916827bffffffffffffffffffffffffffffffffffffffffffffffffffffffff1916149050919050565b60008073ffffffffffffffffffffffffffffffffffffffff166002600084815260200190815260200160002060009054906101000a900473ffffffffffffffffffffffffffffffffffffffff1673ffffffffffffffffffffffffffffffffffffffff1614159050919050565b600033905090565b816004600083815260200190815260200160002060006101000a81548173ffffffffffffffffffffffffffffffffffffffff021916908373ffffffffffffffffffffffffffffffffffffffff160217905550808273ffffffffffffffffffffffffffffffffffffffff1661174883610e19565b73ffffffffffffffffffffffffffffffffffffffff167f8c5be1e5ebec7d5bd14f71427d1e84f3dd0314c0f7b2291e5b200ac8c7c3b92560405160405180910390a45050565b600061179982611661565b6117d8576040517f08c379a00000000000000000000000000000000000000000000000000000000081526004016117cf906136c5565b60405180910390fd5b60006117e383610e19565b90508073ffffffffffffffffffffffffffffffffffffffff168473ffffffffffffffffffffffffffffffffffffffff16148061185257508373ffffffffffffffffffffffffffffffffffffffff1661183a84610658565b73ffffffffffffffffffffffffffffffffffffffff16145b806118635750611862818561146b565b5b91505092915050565b8273ffffffffffffffffffffffffffffffffffffffff1661188c82610e19565b73ffffffffffffffffffffffffffffffffffffffff16146118e2576040517f08c379a00000000000000000000000000000000000000000000000000000000081526004016118d990613757565b60405180910390fd5b600073ffffffffffffffffffffffffffffffffffffffff168273ffffffffffffffffffffffffffffffffffffffff161415611952576040517f08c379a0000000000000000000000000000000000000000000000000000000008152600401611949906137e9565b60405180910390fd5b61195d838383611f5e565b6119686000826116d5565b6001600360008573ffffffffffffffffffffffffffffffffffffffff1673ffffffffffffffffffffffffffffffffffffffff16815260200190815260200160002060008282546119b89190613809565b925050819055506001600360008473ffffffffffffffffffffffffffffffffffffffff1673ffffffffffffffffffffffffffffffffffffffff1681526020019081526020016000206000828254611a0f919061383d565b92505081905550816002600083815260200190815260200160002060006101000a81548173ffffffffffffffffffffffffffffffffffffffff021916908373ffffffffffffffffffffffffffffffffffffffff160217905550808273ffffffffffffffffffffffffffffffffffffffff168473ffffffffffffffffffffffffffffffffffffffff167fddf252ad1be2c89b69c2b068fc378daa952ba7f163c4a11628f55a4df523b3ef60405160405180910390a4505050565b6000600960008381526020019081526020016000206000018190555060006009600083815260200190815260200160002060010160006101000a81548173ffffffffffffffffffffffffffffffffffffffff021916908373ffffffffffffffffffffffffffffffffffffffff16021790555050565b60008183611b4b9190613893565b905092915050565b60008183611b61919061391c565b905092915050565b60008183611b779190613809565b905092915050565b6000600760009054906101000a900473ffffffffffffffffffffffffffffffffffffffff16905081600760006101000a81548173ffffffffffffffffffffffffffffffffffffffff021916908373ffffffffffffffffffffffffffffffffffffffff1602179055508173ffffffffffffffffffffffffffffffffffffffff168173ffffffffffffffffffffffffffffffffffffffff167f8be0079c531659141344cd1fd0a4f28419497f9722a3daafe3b4186f6b6457e060405160405180910390a35050565b8173ffffffffffffffffffffffffffffffffffffffff168373ffffffffffffffffffffffffffffffffffffffff161415611cb4576040517f08c379a0000000000000000000000000000000000000000000000000000000008152600401611cab90613999565b60405180910390fd5b80600560008573ffffffffffffffffffffffffffffffffffffffff1673ffffffffffffffffffffffffffffffffffffffff16815260200190815260200160002060008473ffffffffffffffffffffffffffffffffffffffff1673ffffffffffffffffffffffffffffffffffffffff16815260200190815260200160002060006101000a81548160ff0219169083151502179055508173ffffffffffffffffffffffffffffffffffffffff168373ffffffffffffffffffffffffffffffffffffffff167f17307eab39ab6107e8899845ad3d59bd9653f200f220920489ca2b5937696c3183604051611da591906125df565b60405180910390a3505050565b611dbd84848461186c565b611dc984848484611f63565b611e08576040517f08c379a0000000000000000000000000000000000000000000000000000000008152600401611dff90613a2b565b60405180910390fd5b50505050565b606060405180602001604052806000815250905090565b6060611e3082611661565b611e6f576040517f08c379a0000000000000000000000000000000000000000000000000000000008152600401611e6690613abd565b60405180910390fd5b6000611e79611e0e565b90506000815111611e995760405180602001604052806000815250611ec4565b80611ea3846120eb565b604051602001611eb492919061349c565b6040516020818303038152906040525b915050919050565b611ee682826040518060200160405280600081525061224c565b5050565b611ef382611661565b611f32576040517f08c379a0000000000000000000000000000000000000000000000000000000008152600401611f2990613b4f565b60405180910390fd5b80600660008481526020019081526020016000209080519060200190611f59929190612488565b505050565b505050565b6000611f848473ffffffffffffffffffffffffffffffffffffffff166122a7565b156120de578373ffffffffffffffffffffffffffffffffffffffff1663150b7a02611fad6116cd565b8786866040518563ffffffff1660e01b8152600401611fcf9493929190613bc4565b6020604051808303816000875af192505050801561200b57506040513d601f19601f820116820180604052508101906120089190613c25565b60015b61208e573d806000811461203b576040519150601f19603f3d011682016040523d82523d6000602084013e612040565b606091505b50600081511415612086576040517f08c379a000000000000000000000000000000000000000000000000000000000815260040161207d90613a2b565b60405180910390fd5b805181602001fd5b63150b7a0260e01b7bffffffffffffffffffffffffffffffffffffffffffffffffffffffff1916817bffffffffffffffffffffffffffffffffffffffffffffffffffffffff1916149150506120e3565b600190505b949350505050565b60606000821415612133576040518060400160405280600181526020017f30000000000000000000000000000000000000000000000000000000000000008152509050612247565b600082905060005b6000821461216557808061214e906134ef565b915050600a8261215e919061391c565b915061213b565b60008167ffffffffffffffff81111561218157612180612940565b5b6040519080825280601f01601f1916602001820160405280156121b35781602001600182028036833780820191505090505b5090505b60008514612240576001826121cc9190613809565b9150600a856121db9190613c52565b60306121e7919061383d565b60f81b8183815181106121fd576121fc613c83565b5b60200101907effffffffffffffffffffffffffffffffffffffffffffffffffffffffffffff1916908160001a905350600a85612239919061391c565b94506121b7565b8093505050505b919050565b61225683836122ba565b6122636000848484611f63565b6122a2576040517f08c379a000000000000000000000000000000000000000000000000000000000815260040161229990613a2b565b60405180910390fd5b505050565b600080823b905060008111915050919050565b600073ffffffffffffffffffffffffffffffffffffffff168273ffffffffffffffffffffffffffffffffffffffff16141561232a576040517f08c379a000000000000000000000000000000000000000000000000000000000815260040161232190613cfe565b60405180910390fd5b61233381611661565b15612373576040517f08c379a000000000000000000000000000000000000000000000000000000000815260040161236a90613d6a565b60405180910390fd5b61237f60008383611f5e565b6001600360008473ffffffffffffffffffffffffffffffffffffffff1673ffffffffffffffffffffffffffffffffffffffff16815260200190815260200160002060008282546123cf919061383d565b92505081905550816002600083815260200190815260200160002060006101000a81548173ffffffffffffffffffffffffffffffffffffffff021916908373ffffffffffffffffffffffffffffffffffffffff160217905550808273ffffffffffffffffffffffffffffffffffffffff16600073ffffffffffffffffffffffffffffffffffffffff167fddf252ad1be2c89b69c2b068fc378daa952ba7f163c4a11628f55a4df523b3ef60405160405180910390a45050565b82805461249490612c0a565b90600052602060002090601f0160209004810192826124b657600085556124fd565b82601f106124cf57805160ff19168380011785556124fd565b828001600101855582156124fd579182015b828111156124fc5782518255916020019190600101906124e1565b5b50905061250a919061250e565b5090565b5b8082111561252757600081600090555060010161250f565b5090565b6000604051905090565b600080fd5b600080fd5b60007fffffffff0000000000000000000000000000000000000000000000000000000082169050919050565b6125748161253f565b811461257f57600080fd5b50565b6000813590506125918161256b565b92915050565b6000602082840312156125ad576125ac612535565b5b60006125bb84828501612582565b91505092915050565b60008115159050919050565b6125d9816125c4565b82525050565b60006020820190506125f460008301846125d0565b92915050565b600081519050919050565b600082825260208201905092915050565b60005b83811015612634578082015181840152602081019050612619565b83811115612643576000848401525b50505050565b6000601f19601f8301169050919050565b6000612665826125fa565b61266f8185612605565b935061267f818560208601612616565b61268881612649565b840191505092915050565b600060208201905081810360008301526126ad818461265a565b905092915050565b6000819050919050565b6126c8816126b5565b81146126d357600080fd5b50565b6000813590506126e5816126bf565b92915050565b60006020828403121561270157612700612535565b5b600061270f848285016126d6565b91505092915050565b600073ffffffffffffffffffffffffffffffffffffffff82169050919050565b600061274382612718565b9050919050565b61275381612738565b82525050565b600060208201905061276e600083018461274a565b92915050565b61277d81612738565b811461278857600080fd5b50565b60008135905061279a81612774565b92915050565b600080604083850312156127b7576127b6612535565b5b60006127c58582860161278b565b92505060206127d6858286016126d6565b9150509250929050565b6000806000606084860312156127f9576127f8612535565b5b60006128078682870161278b565b93505060206128188682870161278b565b9250506040612829868287016126d6565b9150509250925092565b60006020828403121561284957612848612535565b5b60006128578482850161278b565b91505092915050565b612869816126b5565b82525050565b60006020820190506128846000830184612860565b92915050565b600080604083850312156128a1576128a0612535565b5b60006128af858286016126d6565b92505060206128c0858286016126d6565b9150509250929050565b6128d3816125c4565b81146128de57600080fd5b50565b6000813590506128f0816128ca565b92915050565b6000806040838503121561290d5761290c612535565b5b600061291b8582860161278b565b925050602061292c858286016128e1565b9150509250929050565b600080fd5b600080fd5b7f4e487b7100000000000000000000000000000000000000000000000000000000600052604160045260246000fd5b61297882612649565b810181811067ffffffffffffffff8211171561299757612996612940565b5b80604052505050565b60006129aa61252b565b90506129b6828261296f565b919050565b600067ffffffffffffffff8211156129d6576129d5612940565b5b6129df82612649565b9050602081019050919050565b82818337600083830152505050565b6000612a0e612a09846129bb565b6129a0565b905082815260208101848484011115612a2a57612a2961293b565b5b612a358482856129ec565b509392505050565b600082601f830112612a5257612a51612936565b5b8135612a628482602086016129fb565b91505092915050565b60008060008060808587031215612a8557612a84612535565b5b6000612a938782880161278b565b9450506020612aa48782880161278b565b9350506040612ab5878288016126d6565b925050606085013567ffffffffffffffff811115612ad657612ad561253a565b5b612ae287828801612a3d565b91505092959194509250565b600080fd5b600080fd5b60008083601f840112612b0e57612b0d612936565b5b8235905067ffffffffffffffff811115612b2b57612b2a612aee565b5b602083019150836001820283011115612b4757612b46612af3565b5b9250929050565b60008060208385031215612b6557612b64612535565b5b600083013567ffffffffffffffff811115612b8357612b8261253a565b5b612b8f85828601612af8565b92509250509250929050565b60008060408385031215612bb257612bb1612535565b5b6000612bc08582860161278b565b9250506020612bd18582860161278b565b9150509250929050565b7f4e487b7100000000000000000000000000000000000000000000000000000000600052602260045260246000fd5b60006002820490506001821680612c2257607f821691505b60208210811415612c3657612c35612bdb565b5b50919050565b7f4552433732313a20617070726f76656420717565727920666f72206e6f6e657860008201527f697374656e7420746f6b656e0000000000000000000000000000000000000000602082015250565b6000612c98602c83612605565b9150612ca382612c3c565b604082019050919050565b60006020820190508181036000830152612cc781612c8b565b9050919050565b7f4552433732313a20617070726f76616c20746f2063757272656e74206f776e6560008201527f7200000000000000000000000000000000000000000000000000000000000000602082015250565b6000612d2a602183612605565b9150612d3582612cce565b604082019050919050565b60006020820190508181036000830152612d5981612d1d565b9050919050565b7f4552433732313a20617070726f76652063616c6c6572206973206e6f74206f7760008201527f6e6572206e6f7220617070726f76656420666f7220616c6c0000000000000000602082015250565b6000612dbc603883612605565b9150612dc782612d60565b604082019050919050565b60006020820190508181036000830152612deb81612daf565b9050919050565b7f4552433732313a207472616e736665722063616c6c6572206973206e6f74206f60008201527f776e6572206e6f7220617070726f766564000000000000000000000000000000602082015250565b6000612e4e603183612605565b9150612e5982612df2565b604082019050919050565b60006020820190508181036000830152612e7d81612e41565b9050919050565b7f4f776e61626c653a2063616c6c6572206973206e6f7420746865206f776e6572600082015250565b6000612eba602083612605565b9150612ec582612e84565b602082019050919050565b60006020820190508181036000830152612ee981612ead565b9050919050565b7f4e46544d61726b65743a2042616c616e6365206973207a65726f000000000000600082015250565b6000612f26601a83612605565b9150612f3182612ef0565b602082019050919050565b60006020820190508181036000830152612f5581612f19565b9050919050565b7f4e46544d61726b65743a204e4654206e6f74206c697374656420666f7220736160008201527f6c65000000000000000000000000000000000000000000000000000000000000602082015250565b6000612fb8602283612605565b9150612fc382612f5c565b604082019050919050565b60006020820190508181036000830152612fe781612fab565b9050919050565b7f4e46544d61726b65743a20596f75277265206e6f74207468652073656c6c6572600082015250565b6000613024602083612605565b915061302f82612fee565b602082019050919050565b6000602082019050818103600083015261305381613017565b9050919050565b600060608201905061306f600083018661274a565b61307c602083018561274a565b6130896040830184612860565b949350505050565b50565b60006130a1600083612605565b91506130ac82613091565b600082019050919050565b6000819050919050565b6000819050919050565b60006130e66130e16130dc846130b7565b6130c1565b6126b5565b9050919050565b6130f6816130cb565b82525050565b600060a0820190506131116000830187612860565b61311e602083018661274a565b61312b604083018561274a565b818103606083015261313c81613094565b905061314b60808301846130ed565b95945050505050565b7f4e46544d61726b65743a20496e636f7272656374207072696365000000000000600082015250565b600061318a601a83612605565b915061319582613154565b602082019050919050565b600060208201905081810360008301526131b98161317d565b9050919050565b7f4552433732313a206f776e657220717565727920666f72206e6f6e657869737460008201527f656e7420746f6b656e0000000000000000000000000000000000000000000000602082015250565b600061321c602983612605565b9150613227826131c0565b604082019050919050565b6000602082019050818103600083015261324b8161320f565b9050919050565b7f4552433732313a2062616c616e636520717565727920666f7220746865207a6560008201527f726f206164647265737300000000000000000000000000000000000000000000602082015250565b60006132ae602a83612605565b91506132b982613252565b604082019050919050565b600060208201905081810360008301526132dd816132a1565b9050919050565b7f4e46544d61726b65743a207072696365206d757374206265206772656174657260008201527f207468616e203000000000000000000000000000000000000000000000000000602082015250565b6000613340602783612605565b915061334b826132e4565b604082019050919050565b6000602082019050818103600083015261336f81613333565b9050919050565b600060a08201905061338b6000830187612860565b613398602083018661274a565b6133a5604083018561274a565b81810360608301526133b681613094565b90506133c56080830184612860565b95945050505050565b7f45524337323155524953746f726167653a2055524920717565727920666f722060008201527f6e6f6e6578697374656e7420746f6b656e000000000000000000000000000000602082015250565b600061342a603183612605565b9150613435826133ce565b604082019050919050565b600060208201905081810360008301526134598161341d565b9050919050565b600081905092915050565b6000613476826125fa565b6134808185613460565b9350613490818560208601612616565b80840191505092915050565b60006134a8828561346b565b91506134b4828461346b565b91508190509392505050565b7f4e487b7100000000000000000000000000000000000000000000000000000000600052601160045260246000fd5b60006134fa826126b5565b91507fffffffffffffffffffffffffffffffffffffffffffffffffffffffffffffffff82141561352d5761352c6134c0565b5b600182019050919050565b60006135448385612605565b93506135518385846129ec565b61355a83612649565b840190509392505050565b600060a08201905061357a6000830189612860565b613587602083018861274a565b613594604083018761274a565b81810360608301526135a7818587613538565b90506135b660808301846130ed565b979650505050505050565b7f4f776e61626c653a206e6577206f776e657220697320746865207a65726f206160008201527f6464726573730000000000000000000000000000000000000000000000000000602082015250565b600061361d602683612605565b9150613628826135c1565b604082019050919050565b6000602082019050818103600083015261364c81613610565b9050919050565b7f4552433732313a206f70657261746f7220717565727920666f72206e6f6e657860008201527f697374656e7420746f6b656e0000000000000000000000000000000000000000602082015250565b60006136af602c83612605565b91506136ba82613653565b604082019050919050565b600060208201905081810360008301526136de816136a2565b9050919050565b7f4552433732313a207472616e73666572206f6620746f6b656e2074686174206960008201527f73206e6f74206f776e0000000000000000000000000000000000000000000000602082015250565b6000613741602983612605565b915061374c826136e5565b604082019050919050565b6000602082019050818103600083015261377081613734565b9050919050565b7f4552433732313a207472616e7366657220746f20746865207a65726f2061646460008201527f7265737300000000000000000000000000000000000000000000000000000000602082015250565b60006137d3602483612605565b91506137de82613777565b604082019050919050565b60006020820190508181036000830152613802816137c6565b9050919050565b6000613814826126b5565b915061381f836126b5565b925082821015613832576138316134c0565b5b828203905092915050565b6000613848826126b5565b9150613853836126b5565b9250827fffffffffffffffffffffffffffffffffffffffffffffffffffffffffffffffff03821115613888576138876134c0565b5b828201905092915050565b600061389e826126b5565b91506138a9836126b5565b9250817fffffffffffffffffffffffffffffffffffffffffffffffffffffffffffffffff04831182151516156138e2576138e16134c0565b5b828202905092915050565b7f4e487b7100000000000000000000000000000000000000000000000000000000600052601260045260246000fd5b6000613927826126b5565b9150613932836126b5565b925082613942576139416138ed565b5b828204905092915050565b7f4552433732313a20617070726f766520746f2063616c6c657200000000000000600082015250565b6000613983601983612605565b915061398e8261394d565b602082019050919050565b600060208201905081810360008301526139b281613976565b9050919050565b7f4552433732313a207472616e7366657220746f206e6f6e20455243373231526560008201527f63656976657220696d706c656d656e7465720000000000000000000000000000602082015250565b6000613a15603283612605565b9150613a20826139b9565b604082019050919050565b60006020820190508181036000830152613a4481613a08565b9050919050565b7f4552433732314d657461646174613a2055524920717565727920666f72206e6f60008201527f6e6578697374656e7420746f6b656e0000000000000000000000000000000000602082015250565b6000613aa7602f83612605565b9150613ab282613a4b565b604082019050919050565b60006020820190508181036000830152613ad681613a9a565b9050919050565b7f45524337323155524953746f726167653a2055524920736574206f66206e6f6e60008201527f6578697374656e7420746f6b656e000000000000000000000000000000000000602082015250565b6000613b39602e83612605565b9150613b4482613add565b604082019050919050565b60006020820190508181036000830152613b6881613b2c565b9050919050565b600081519050919050565b600082825260208201905092915050565b6000613b9682613b6f565b613ba08185613b7a565b9350613bb0818560208601612616565b613bb981612649565b840191505092915050565b6000608082019050613bd9600083018761274a565b613be6602083018661274a565b613bf36040830185612860565b8181036060830152613c058184613b8b565b905095945050505050565b600081519050613c1f8161256b565b92915050565b600060208284031215613c3b57613c3a612535565b5b6000613c4984828501613c10565b91505092915050565b6000613c5d826126b5565b9150613c68836126b5565b925082613c7857613c776138ed565b5b828206905092915050565b7f4e487b7100000000000000000000000000000000000000000000000000000000600052603260045260246000fd5b7f4552433732313a206d696e7420746f20746865207a65726f2061646472657373600082015250565b6000613ce8602083612605565b9150613cf382613cb2565b602082019050919050565b60006020820190508181036000830152613d1781613cdb565b9050919050565b7f4552433732313a20746f6b656e20616c7265616479206d696e74656400000000600082015250565b6000613d54601c83612605565b9150613d5f82613d1e565b602082019050919050565b60006020820190508181036000830152613d8381613d47565b905091905056fea264697066735822122066dfd1b5d2195dcaad0e1e0d97679a7bb522f465b5a8494841e083cd0e24293d64736f6c634300080b0033",
  "linkReferences": {},
  "deployedLinkReferences": {}
}